:060000000A128A11122809
:10000800FE00030EF9000408FA000A08FB00831238
:1000180003137F08FC000A128A15DE2B0A128A11C4
:1000280015288313BD30FD000B30FE001430FF008F
:10003800B53084000A128A15202383160313BD01E4
:10004800BE0183010A128A11BF2B83160313A6016E
:1000580083120313680867046604031D55280030DB
:10006800A0000030A1000030A2006908A3006A08BF
:10007800A4006B08A5000A128A1533250A128A11F2
:10008800031C4C28213083160313BD000030BE002A
:10009800003083120313E6000030E7000030E80068
:1000A80008006B086A046904031D61280030E60033
:1000B8008030E7003F30E80008006608A0006708C5
:1000C800A1006808A2000030A3000030A40000309E
:1000D800A5000A128A1533250A128A110318F12875
:1000E800831203136908AE006A08AF006B08B000FA
:1000F8000A128A1572270A128A1183120313310809
:1001080083160313AA0083120313300883160313FC
:10011800A900831203132F0883160313A800831260
:1001280003132E0883160313A7002A088312031348
:10013800AB0083160313290883120313AA0083163E
:100148000313280883120313A9008316031327082F
:1001580083120313A8000A128A15AF230A128A1100
:10016800831203136B082A06031DC0286A08290690
:10017800031DC028690828060319D12821308316D1
:100188000313BD000030BE00003083120313E600E5
:100198000030E7000030E800080083160313270842
:1001A800013983120313EC006C0883160313A600AD
:1001B800831203136608A0006708A1006808A2005C
:1001C8000A128A11F5270A128A11831203132008CA
:1001D800E6002108E7002208E800831203136608F6
:1001E800D5006708D6006808D7000A128A11892541
:1001F8000A128A1183120313550883160313A000E9
:1002080083120313560883160313A10083120313E2
:10021800570883160313A200831203136908AE005C
:100228006A08AF006B08B000831603132008831216
:100238000313B10083160313210883120313B200BA
:1002480083160313220883120313B3000A128A11B8
:10025800B6240A128A11831203132E088316031375
:10026800A300831203132F0883160313A400831219
:100278000313300883160313A500230883120313FE
:10028800DC0083160313240883120313DD0083168E
:100298000313250883120313DE000A128A1177213B
:1002A8000A128A11831203135C08E6005D08E7004E
:1002B8005E08E80083160313260803190800831252
:1002C80003136608A0006708A1006808A2000A12C4
:1002D8008A11F527831203132008E6002108E70096
:1002E8002208E8000800831203135E085D045C041A
:1002F800031D85290030DC008030DD003F30DE0042
:1003080008007230A0003130A1004430A2005C081F
:10031800A3005D08A4005E08A5000A128A1533250B
:100328000A128A110318A729223083160313BD0065
:100338000030BE00FF3083120313DC007F30DD0085
:100348007F30DE000800831203135C08A0005D08FC
:10035800A1005E08A2004930A3003A30A400C430CE
:10036800A5000A128A1533250A128A110318CB2907
:10037800223083160313BD000030BE000030831204
:100388000313DC000030DD000030DE0008008312BB
:1003980003135C08A0005D08A1005E08A2000030FD
:1003A800A3000030A4000030A5000A128A153325E6
:1003B8000A128A110318E2290130E3290030831256
:1003C8000313DF005F08E50065080319FE295C08D0
:1003D800A0005D08A1005E08A2000A128A11F52794
:1003E8000A128A11831203132008DC002108DD0099
:1003F8002208DE00AA30AE00B830AF003F30B000AF
:100408005C08B1005D08B2005E08B3000A128A11E8
:10041800B6240A128A11831203132E08DC002F084F
:10042800DD003008DE005C08CB005D08CC005E080B
:10043800CD000A128A110F270A128A118312031398
:100448004B08E0004C08E1004D08E2006008AE00EF
:100458006108AF006208B0000A128A1572270A12F2
:100468008A11831203132F08E4002E08E30064089E
:10047800A9006308A8000A128A1561230A128A11C2
:10048800831203132808CB002908CC002A08CD00C2
:100498005C08CE005D08CF005E08D0000A128A15FD
:1004A80040230A128A11831203134B08DC004C08FC
:1004B800DD004D08DE005C08CB005D08CC005E085E
:1004C800CD000130DF005F08CE000930CF000030DA
:1004D800D0000A128A1571260A128A118312031390
:1004E8004B08D5004C08D6004D08D7006408D90041
:1004F8006308D8000A128A15EA260A128A1183129A
:1005080003135508DC005608DD005708DE006508AF
:10051800031908005C0A7F3003195D067F30031950
:100528005E06031D9E2A0030DC000030DD0000302E
:10053800DE0008005C08A8005D08A9005E08AA00A3
:100548000030AB008030AC003F30AD000A128A1199
:100558005726831203132808DC002908DD002A081F
:10056800DE000800831203133E08C4003F08C500DC
:100578004008C6000310450D460DC7004708CA00CD
:100588004108C4004208C5004308C6000310450DD1
:10059800460DC7004708C9004A080319DF2A490859
:1005A8004A020318E62A4A03FF3A4907C4001930E9
:1005B8004402031CE62A4108BE004208BF00430863
:1005C800C00008004908031908004A08490203182E
:1005D800F52A4903FF3A4A07C400193044020318B0
:1005E80008000630C4004408C800C01BC817C31B55
:1005F8004817BF17FF30BE05FF30BF050030C005E4
:10060800C217FF30C105FF30C2050030C3054908D5
:100618004A020318352B01300310C10DC20DC30D5A
:10062800FF3E031D102B0130C90249084A06031971
:10063800302B0130C802480807390319302B0F2B1B
:1006480001300310C00CBF0CBE0CFF3E031D252B50
:100658000130C4004408CA074A08490603195E2B3A
:10066800242B4A08490203185E2B01300310BE0DE3
:10067800BF0DC00DFF3E031D3A2B0130CA024908C9
:100688004A0603195A2B0130C802480807390319CA
:100698005A2B392B01300310C30CC20CC10CFF3E7E
:1006A800031D4F2B0130C4004408C9074A084906F6
:1006B800031D4E2BC81F702BFF30BE06FF30BF0630
:1006C800FF30C0060130BE07003003180130BF07F5
:1006D800003003180130C007481F822BFF30C106C5
:1006E800FF30C206FF30C3060130C10700300318CF
:1006F8000130C207003003180130C307C8013E08A3
:10070800C1073F08031103183F0A031DC207400829
:1007180003110318400A031DC307C31FA52BFF308D
:10072800C106FF30C206FF30C3060130C1070030E2
:1007380003180130C207003003180130C307C8018D
:10074800C80A4108A0004208A1004308A2004A08BC
:10075800C4004408A3004808C5004508A4000A12BC
:100768008A159225831203132008BE002108BF00B2
:100778002208C00008008316031387010130831282
:1007880003138700FF3083160313860083160317AD
:1007980088018901831603138801831203138801D2
:1007A8008B170B168B1083160313B301B401073094
:1007B80083120313B4000030B5000A128A1500260C
:1007C8000A128A11831203132E08B7002D08B600E7
:1007D8000A128A11A8270A128A11831203133508EC
:1007E80083160313BC008312031334088316031300
:1007F800BB003C0883120313A900831603133B08AC
:1008080083120313A8000A128A1561230A128A1197
:1008180083120313280883160313AB0083120313F0
:10082800290883160313AC00831203132A088316BE
:100838000313AD002B0883120313E9008316031377
:100848002C0883120313EA00831603132D0883125E
:100858000313EB000030E6000030E7004030E8000A
:100868000A128A1129200A128A11831203136608B0
:1008780083160313AE00831203136708831603134A
:10088800AF0083120313680883160313B0002E0801
:1008980083120313AE00831603132F088312031366
:1008A800AF0083160313300883120313B0000A1233
:1008B8008A1572270A128A11831203132F088316C6
:1008C8000313BC00831203132E0883160313BB0003
:1008D8003A083C06031D722C39083B060319DB2B2A
:1008E800B101B2013208803AFF0080307F02031D57
:1008F8007F2C053031020318DB2B0A128A15862358
:100908000A128A11413083120313EE00ED30ED0014
:10091800ED0B8C2CEE0B8C2C912C831603133C08BE
:10092800B4003B08B300BB01BC010A128A15862338
:100938000A128A11413083120313EE00ED30ED00E4
:10094800ED0BA42CEE0BA42CA92C8316031334084E
:10095800BC003308BB000130B1070318B20A0030ED
:10096800B207762C831203132E08B4002F08B500A3
:100978003008B6000310350D360DB7003708B8003B
:100988003808031DCE2C0030AE000030AF00003018
:10099800B00008003108B4003208B5003308B600CA
:1009A8000310350D360DB7003708BD003D08031D8F
:1009B800E42C0030AE000030AF000030B00008007A
:1009C8003D087B3EB4003408B8072E08B4002F0851
:1009D800B5003008B60010300310B60CB50CB40CD6
:1009E800FF3E031DF02C3408B7003708BD0031085E
:1009F800B4003208B5003308B60010300310B60C46
:100A0800B50CB40CFF3E031D022D3408B70037089F
:100A1800BD068030B4003408BD05AF17B217FF30EB
:100A2800B105FF30B2050030B3050030B900003021
:100A3800BA000030BB000730B4003408BC002E1CDC
:100A4800332D3108B907320803110318320A031D80
:100A5800BA07330803110318330A031DBB07013013
:100A68000310B00CAF0CAE0CFF3E031D342D01304B
:100A78000310B10DB20DB30DFF3E031D3C2D013027
:100A8800BC02031D232D0930B4003408BC002E1C01
:100A98005B2D3108B907320803110318320A031D08
:100AA800BA07330803110318330A031DBB070130C3
:100AB8000310B00CAF0CAE0CFF3E031D5C2D0130D3
:100AC8000310BB0CBA0CB90CFF3E031D642D01309A
:100AD800BC02031D4B2D3908A0003A08A1003B08B1
:100AE800A2003808B4003408A3003D08B500350852
:100AF800A4000A128A159225831203132008AE0057
:100B08002108AF002208B00008008312031355081B
:100B1800A0005608A1005708A2000030A30000302A
:100B2800A4000030A5000A128A1533250A128A117A
:100B38000318AD2D213083160313BD000030BE000D
:100B4800003083120313D5000030D6000030D700E0
:100B5800080083120313570856045504031DC32DB8
:100B6800223083160313BD000030BE00003083120C
:100B78000313D5000030D6000030D700080000303D
:100B8800BE008030BF00BF30C0000030AE00003073
:100B9800AF004030B0005930D8005808A3005508BD
:100BA800A0005608A1005708A2000A128A15982426
:100BB8000A128A11831203132008B1002108B20017
:100BC8002208B3000A128A11B6240A128A11831263
:100BD80003132E08C1002F08C2003008C3000A12F0
:100BE8008A11B6220A128A11831203133E08D5000D
:100BF8003F08D6004008D700FF30D9070318DA0AA3
:100C0800FF30DA075508CB005608CC005708CD004E
:100C18001F30D8005808CE000830CF000030D00070
:100C28000A128A1571260A128A11831203134B08B5
:100C3800D5004C08D6004D08D7005508BE00560808
:100C4800BF005708C0007230AE003130AF003F30EF
:100C5800B0005A08A9005908A8000A128A15612389
:100C68000A128A11831203132808B1002908B20056
:100C78002A08B3000A128A11B6240A128A118312AA
:100C880003132E08C1002F08C2003008C3000A123F
:100C98008A11B622831203133E08D5003F08D600F6
:100CA8004008D7000800831203132B08AE002C0855
:100CB800AF002D08B00003102F0D300DB100310822
:100CC800B6003608031D6F2E0030A8000030A900BA
:100CD8000030AA0008002808AE002908AF002A083A
:100CE800B00003102F0D300DB1003108B7003708E0
:100CF800031D852E0030A8000030A9000030AA008E
:100D080008000030B3000030B4000030B50089306E
:100D18003707AE002E08B6022B08AE002C08AF002D
:100D28002D08B00010300310B00CAF0CAE0CFF3E15
:100D3800031D972E2E08B1003108B7002808AE0011
:100D48002908AF002A08B00010300310B00CAF0C0F
:100D5800AE0CFF3E031DA92E2E08B1003108B706C0
:100D68008030AE002E08B705AC17FF30AB05FF305A
:100D7800AC050030AD05A917FF30A805FF30A9055F
:100D88000030AA051830AE002E08B200013003105A
:100D9800B30DB40DB50DFF3E031DCB2E2A082D0251
:100DA800031DDC2E29082C02031DDC2E28082B022B
:100DB800031CE92E2808AB022908031C290FAC02E2
:100DC8002A08031C2A0AAD02331401300310AB0DA4
:100DD800AC0DAD0DFF3E031DEA2E0130B202031D1E
:100DE800CA2E3308A0003408A1003508A20036082E
:100DF800AE002E08A3003708AF002F08A4000A127F
:100E08008A159225831203132008A8002108A90037
:100E18002208AA000800831203134B08A0004C08FC
:100E2800A1004D08A2005230CE004E08A3000A12BD
:100E38008A1598240A128A1183120313D31F492F83
:100E48004B08A0004C08A1004D08A2000030A300E8
:100E58000030A4000030A5000A128A1533250A12B2
:100E68008A110318402F003083120313CB008030FF
:100E7800CC00BF30CD000800003083120313CB0034
:100E88000030CC000030CD0008000030530215308F
:100E980003195202031808004B08AE004C08AF00B3
:100EA8004D08B0000A128A1572270A128A11831295
:100EB80003133108BF003008BE002F08BD002E08FC
:100EC800BC000A128A1556240A128A1183120313C7
:100ED8003C08CF003D08D0003E08D1004B08A000D8
:100EE8004C08A1004D08A2004F08A3005008A40018
:100EF8005108A5000A128A1533250A128A11031807
:100F08009F2F003083120313BE008030BF00BF3014
:100F1800C0004F08C1005008C2005108C3000A129F
:100F28008A11B622831203133E08CB003F08CC0077
:100F38004008CD000800831203134F08CB00500867
:100F4800CC005108CD00080083120313BA01B71F63
:100F5800B42FB609B709B60A0319B70ABA01BA0A0B
:100F6800B51FBB2FB409B509B40A0319B50A34086B
:100F780035040319E82FB901B90AB51BCF2F013081
:100F88000310B40DB50DFF3E031DC42F0130B8008A
:100F98003808B907C12F35083702031DD52F340883
:100FA8003602031CDD2F3408B6023508031CB703CC
:100FB800B70201300310B50CB40CFF3E031DDE2F41
:100FC8000130B902031DCF2F3A080319F02FB609D3
:100FD800B709B60A0319B70A3708B5003608B400C6
:100FE80008008312031322082104200403190800AF
:060FF8008030A206080093
:1010000008308A000408840A8207003400348034DF
:101010003F34723431343F34FE3475343E34583406
:1010200063343D3495341D343C34C534AE343A34E5
:101030007934213439349434803437349334A734B8
:10104000353456341534343400340034003400342C
:1010500080343F34F034FF34BE34E234A9343E34BB
:1010600083347634BE34AE342B343E343C34C33413
:0E107000BD34D23413343D347834D334BB3421
:10162800013400340034003401340034043400340C
:101638007E088A007F0882001C230A128A1580000F
:10164800840A04087D0603190034FF0A0319FE0AF8
:10165800202B83120313A300A201231C372B20087D
:10166800A1002108A2070310A00D0310A30C230852
:10167800031D312B22080800831203134D084C0464
:101688004B040319492B8030CD064E08BE004F0885
:10169800BF005008C0004B08C1004C08C2004D08EC
:1016A800C3000A128A11B622831203133E08CB0024
:1016B8003F08CC004008CD00080083120313AD0199
:1016C800A91F6D2BA809A909A80A0319A90AAD0120
:1016D800AD0A2808A0002908A100A2018E30AB009D
:1016E8002B08A3002D08AC002C08A4000A128A15A8
:1016F8009225831203132008A8002108A9002208B4
:10170800AA000800831603133A083C06031D8E2B13
:1017180039083B06031DA72B3B08831203138700D8
:101728000814103083120313A2003930A1000D30C1
:10173800A000A00B9D2BA10B9D2BA20B9D2B831210
:101748000313081008008316031339083B07831294
:101758000313870008008E3083120313AC002C0893
:10176800AD00FF302B050319C72B01300310AB0C5C
:10177800AA0CA90CA80CFF3E031DBA2B0130AC0023
:101788002C08AD07B52B2808A0002908A1002A08B5
:10179800A2002D08AC002C08A300A4010A128A1587
:1017A8009225831203132008A8002108A900220803
:1017B800AA0008008B10861FED2B803083160313B8
:1017C80039063A040319ED2B0310390DB9003A0D07
:1017D800BA008312861B092C8316031339033A04B3
:1017E8000319092C0230F0000030F1003A08F30028
:1017F8003908F2000A128A15DA240A128A157108C1
:1018080083160313BA007008B9007C088312FF001E
:101818007B088A007A088400790E8300FE0E7E0E0B
:101828000900003083120313AC000030AB00003015
:10183800AA000030A900201C352C2408A907250877
:1018480003110318013E031DAA07260803110318F4
:10185800013E031DAB07270803110318013E031DB2
:10186800AC070130A8000310A40DA50DA60DA70D07
:10187800A80B372C01300310A30CA20CA10CA00C50
:10188800FF3E031D3F2C2308220421042004031DCE
:101898001F2C2C08A3002B08A2002A08A100290845
:1018A800A000080083120313C3018E30C000400853
:1018B800C200BF1F6C2CBC09BD09BE09BF09BC0A08
:1018C8000319BD0A0319BE0A0319BF0AC301C30AD3
:1018D800FF303F0503197E2C01300310BF0CBE0CEE
:1018E800BD0CBC0CFF3E031D712C0130C00040082C
:1018F800C2076C2C3C08A0003D08A1003E08A200CD
:101908004208C0004008A3004308C1004108A400E1
:101918000A128A159225831203132008BC00210895
:10192800BD002208BE000800831203132208210408
:101938002004031DAC2C2308840083138001840A2F
:1019480080010030A0000030A1000030A200080093
:1019580022087F39A400A5010310A40DA50D2308B2
:101968008400240883138000840A25088000210D40
:10197800210D0139A400A50123088400240880044E
:10198800840A250880042308840082308007840F95
:1019980000080318000AFF00FF307F078000840357
:1019A800220880393F38A200A1130800F601F11F70
:1019B800E42CF009F109F00A0319F10AF601F60A14
:1019C800F31FEF2CF209F309F20A0319F30A0130A5
:1019D800F4007408F606F701F80170087104031999
:1019E800262DF501F50AF11B052D01300310F00D28
:1019F800F10DFF3E031DFA2C0130F4007408F507C1
:101A0800F72C01300310F70DF80DFF3E031D062DCE
:101A180071087302031D122D70087202031C1B2D1E
:101A28007008F2027108031CF303F3027714013003
:101A38000310F10CF00CFF3E031D1C2D0130F502C4
:101A4800031D052D760803192E2DF709F809F70A45
:101A58000319F80A7808F1007708F00008008312E3
:101A68000313A21F5C2D0030A6000030A7008030B1
:101A7800A8002009A9002109AA002209AB00A90A87
:101A88000319AA0A0319AB0A2908A6072A08031882
:101A98002A0F4F2D502DA7072B0803182B0F552D54
:101AA800562DA8072608A0002708A1002808A2008C
:101AB800A51F832D0030A6000030A7008030A800A5
:101AC8002309A9002409AA002509AB00A90A0319BA
:101AD800AA0A0319AB0A2908A6072A0803182A0F15
:101AE800762D772DA7072B0803182B0F7C2D7D2D1E
:101AF800A8072608A3002708A4002808A500803006
:101B0800A2068030A50625082202031D0800240825
:101B18002102031D08002308200208008312031372
:101B2800230803199C2D220821042004031DAF2D2E
:101B38000030A0000030A1000030A20008000130F1
:101B4800A5002508A30701300310A20CA10CA00CC6
:101B5800FF3E031DA82DFE3022050319CA2DA32D13
:101B68000130A5002508A3070130A007003003189D
:101B78000130A107003003180130A207013003101B
:101B8800A20CA10CA00CFF3E031DC32DFF302205A3
:101B98000319D92DB42D0130A30201300310A00D73
:101BA800A10DA20DFF3E031DD22DA11BDF2D02307A
:101BB80023020318CF2D2318E72DFF30A0057F300F
:101BC800A105FF30A2050310A30C2308A500A60158
:101BD800A70110300310A50DA60DA70DFF3E031D8C
:101BE800EE2D2508A0042608A1042708A20424082D
:101BF80003190800A2170800831603133808831274
:101C08000313A30083160313370883120313A200D8
:101C180083160313360883120313A10083160313D4
:101C2800350883120313A0004130A700C630A60070
:101C38004E30A5006D30A4000A128A1515240A1228
:101C48008A1583120313230883160313B80083121B
:101C58000313220883160313B70083120313210802
:101C680083160313B6008312031320088316031385
:101C7800B5003930B507303003183130B6070030B9
:101C880003180130B707003003180130B8073508CA
:101C980083120313AF00831603133608831203134A
:101CA800B00083160313370883120313B100831699
:101CB8000313380883120313B2001030B300320D37
:101CC800B20CB10CB00CAF0CB30B632EFF302F0568
:101CD800AD007F303005AE000800033083120313D7
:101CE800D1005108A0004F080A128A152D230A12A4
:101CF8008A15831203134E0784000A128A150020DE
:101D08000A128A15D2000A128A1500200A128A15A8
:101D1800D3000A128A1500200A128A15D4004F0827
:101D280050040319E32E0330D1005108A000FF30FE
:101D3800CF070318D00AFF30D0074F080A128A15B8
:101D48002D230A128A15831203134E0784000A12E0
:101D58008A1500200A128A15BE000A128A15002068
:101D68000A128A15BF000A128A1500200A128A155B
:101D7800C0005208AE005308AF005408B0004B082A
:101D8800B1004C08B2004D08B3000A128A11B624FB
:101D98000A128A15831203132E08C1002F08C200E5
:101DA8003008C3000A128A11B6220A128A15831251
:101DB80003133E08D2003F08D3004008922E520871
:101DC800CB005308CC005408CD000800831203133D
:101DD800570856045504031DF82E0030D50000306E
:101DE800D6000030D700080057087F39DA00DB0139
:101DF8000310DA0DDB0D5A08D8070318D90A5B0857
:101E0800D907560D560D0139DA00DB015A08D807F3
:101E18000318D90A5B08D907D91F212F2230831646
:101E28000313BD000030BE00003083120313D50039
:101E38000030D6000030D70008005908803AFF006B
:101E480081307F02031D2A2F00305802031C592FAE
:101E5800223083160313BD000030BE008312031323
:101E68005508A0005608A1005708A2000030A3009A
:101E78000030A4000030A5000A128A1533250A1282
:101E88008A150318502FFF3083120313D5007F30B3
:101E9800D600FF30D7000800FF3083120313D500A7
:101EA8007F30D6007F30D70008008312031359080B
:101EB800DB005808DA005B0DDB0CDA0C57085A0611
:101EC80080395A06D70058080139DA00DA0CDA0CDA
:101ED80056085A067F395A06D6000800831203139B
:101EE8002E08B2002F08B3003008B4000310330DD9
:101EF800340DB5003508BB003B08031D8C2F00309E
:101F0800B1000030B0000030AF000030AE00080073
:101F18002E08B2002F08B3003008B40017300310A1
:101F2800B40CB30CB20CFF3E031D932F3208B5005E
:101F38003508B600AF17FF30AE05FF30AF050030EB
:101F4800B0052E08B7002F08B8003008B900BA014C
:101F58008E30BB02BB1FCE2F3B08803A8F3E031842
:101F6800BE2F0030B1000030B0000030AF000030AC
:101F7800AE00080001300310BA0CB90CB80CB70C4D
:101F8800FF3E031DBF2F0130B2003208BB07031903
:101F9800E92FBE2F18303B02031CE62F0030B1009A
:101FA8000030B0000030AF000030AE000800013053
:101FB800B2000310B70DB80DB90DBA0DB20BDD2F75
:101FC8000130BB023B08031DDB2F36080319F72F2E
:101FD800B709B809B909BA09B70A0319B80A031938
:101FE800B90A0319BA0A3A08B1003908B000380822
:081FF800AF003708AE0008003D
:04400E00FCE0FFFFD4
:00000001FF
